:1000000000300020391300007D1300008113000030
:1000100000000000000000000000000000000000E0
:100020000000000000000000000000008513000038
:100030000000000000000000891300008D13000084
:100040009113000095130000991300009D13000008
:100050007913000079130000791300007913000070
:10006000A1130000A5130000A9130000AD130000A8
:10007000B1130000B5130000B9130000791300009C
:100080007913000079130000791300007913000040
:100090007913000079130000791300007913000030
:1000A0007913000079130000791300007913000020
:1000B0007913000079130000791300007913000010
:10040000FFFFFFFFFFFFFFFFFFFFFFFFFE3DFFFFBF
:1004100010B5064C2378002B07D1054B002B02D0DA
:10042000044800E000BF0123237010BD68F0FF1FE7
:1004300000000000607A000008B5084B002B03D0D4
:100440000748084900E000BF07480368002B03D0B5
:10045000064B002B00D0984708BDC04600000000A6
:10046000607A00006CF0FF1F64F0FF1F00000000C6
:10047000164B002B00D1144B9D46402292029A1A33
:10048000924600218B460F461348144A121A06F072
:100490009BF80F4B002B00D098470E4B002B00D041
:1004A00098470020002104000D000D48002802D0CC
:1004B0000C4800E000BF06F061F82000290004F0BD
:1004C00041FF06F045F8C04600000800003000205B
:1004D000000000000000000068F0FF1F00F2FF1F96
:1004E0000000000000000000002934D00123002299
:1004F00010B488422CD301242407A14204D28142A3
:1005000002D209011B01F8E7E400A14204D28142B2
:1005100002D249005B00F8E7884201D3401A1A432F
:100520004C08A04202D3001B5C0822438C08A04266
:1005300002D3001B9C082243CC08A04202D3001B1C
:10054000DC082243002803D01B0901D00909E3E796
:10055000101C10BC7047002801D00020C04307B415
:10056000024802A14018029003BDC046D900000015
:100570000029F0D003B5FFF7B9FF0EBC4243891A3A
:100580001847C046002941D010B4041C4C40A44672
:1005900001230022002900D54942002800D540420D
:1005A00088422CD301242407A14204D2814202D2E2
:1005B00009011B01F8E7E400A14204D2814202D202
:1005C00049005B00F8E7884201D3401A1A434C08FF
:1005D000A04202D3001B5C0822438C08A04202D335
:1005E000001B9C082243CC08A04202D3001BDC085D
:1005F0002243002803D01B0901D00909E3E7101C9E
:100600006446002C00D5404210BC7047002806D03C
:1006100003DB0020C043400801E08020000607B44F
:10062000024802A14018029003BDC0461900000014
:100630000029EBD003B5FFF7A7FF0EBC4243891A90
:100640001847C0467047C046F0B5564644465F4618
:100650004D46F0B41F1C0B031B0B98464B0087B094
:10066000041C81465B0DC80F161C9A460090002B97
:1006700051D06A4B9A4531D08022414652030A43F9
:10068000630FD2001A43664B90460025E200914664
:100690009A44002402953B031B0B9B46FD0F7B00F5
:1006A000311C5B0D019560D05C4A934254D080218F
:1006B000584649030143720FC9001143584A8B46FB
:1006C0009B18F1000020009A04436A4003920F2C0B
:1006D00000D9ADE0534EA4003459A7464046044328
:1006E0006ED1002102250824884689460295D2E76A
:1006F000009C0298C34649460194022864D003280E
:1007000000D1ABE2012800D038E2019A0024024077
:100710000025A14660E0434623434AD040460028D6
:1007200000D1C0E100F0EAFD031E272B00DDB3E19C
:1007300028210D1A211C083B4246E9409A400D1C15
:100740001543221C9A40A8469146374B00251B1A98
:100750009A46002402959EE75A4616430320002E2F
:10076000B1D1B34600210220ADE75A4632431BD037
:100770005B46002B00D18AE1584600F0BFFD2728D8
:1007800000DD7DE12822171A011C321C08395B4666
:10079000FA408B40171C1F43331C8B40BB46191C6F
:1007A000214B1B1A00208EE70027BB4600210120A9
:1007B00089E70020012504248046814602956AE7E6
:1007C00003250C24029566E7019C0394039D0122F6
:1007D0002A400024114DA146002000212403260BAD
:1007E0000C0D2405114B34432D0523402B435B0096
:1007F0005B08D207191C4846114307B03CBC904621
:100800009946A246AB46F0BD0022802424039146BF
:10081000024DE1E700240025A146DDE7FF070000C7
:1008200001FCFFFF8C7500000DFCFFFFFFFF0F8038
:100830005546ED1A0495D84500D953E100D14EE153
:10084000049C0025013C4E4604944746A946584660
:1008500003020C0E1C430902250C23041B0C0091FF
:10086000381C291C0193FFF73FFE01998346414341
:10087000381C8A46291CFFF77BFE330C09041943F8
:100880008A450CD95B460919013B8C4200D947E1E6
:100890008A4500D844E10222524293440919534642
:1008A000CB1A181C291C9846FFF71EFE071C01983E
:1008B000291C784382464046FFF75AFE36040B0453
:1008C000360C33439A4509D91B197A1E9C4200D92C
:1008D00024E19A4500D821E1023F1B195E4632040B
:1008E0001743380CBB46009E009F51463F0C320414
:1008F0005B1A5946BA46120C0F043F0C90465146FB
:100900007A434F434146414356467043CF19160C34
:10091000BE19B14202D980277F02C019310C1204DE
:100920003604120C4018B618834200D2C4E000D13D
:10093000BEE0191A4846861BB145BF417F42CF1B16
:10094000A74200D113E1291C381CFFF7CDFD019906
:1009500002904143381C8946291CFFF709FE330CDD
:100960000904194389450CD9029B0919013B8C42A2
:1009700000D9FFE0894500D8FCE0029F0919023F39
:1009800002974F46CF1B381C291C0597FFF7ACFD7B
:10099000071C0198291C784381460598FFF7E8FD5C
:1009A00036040904360C0E43B14509D936197B1EAD
:1009B000B44200D9E0E0B14500D8DDE0023F36198D
:1009C000029D4946761A290439430B0457460A0CFE
:1009D0001B0C40464546584355437B437A43EB182E
:1009E000070CDB199D4202D980256D0252191D0C9E
:1009F00000041B04000C52191B18964235D300D179
:100A0000FCE001231943049E994FF519002D00DCE9
:100A1000A1E0480709D00F230B40042B05D00B1D84
:100A20008B42894149428B44191C5A46D20107D551
:100A3000904B5C46049E80271C40FF00A346F5199E
:100A40008D4B9D427ADD039C0122224000248B4D78
:100A5000A146C1E680242403474627424CD13C43AB
:100A60002403240B009A854DB6E63619481EB4427D
:100A70005ED9011C9642C4D1009E9E42C1D1C2E7FC
:100A8000031C283B311C99408B46002188E6301C12
:100A900000F034FC203072E6283B211C99400022F3
:100AA0008846914651E6201C00F028FC20303BE6A9
:100AB0000021B14500D33DE7009F5A46B944B945EE
:100AC000BF417F423F19FB18013A9C421ED2984217
:100AD00000D97EE000D1B5E0191A93462AE789458E
:100AE00000D8ADE64846464642467708D307460852
:100AF000C0071E438146AAE65846204212D104434D
:100B000024032A1C240B89465C4D65E6A342E3D1ED
:100B1000009F4F45DBD9211A93460BE7171CDDE6F2
:100B20009B46BCE63C432403240B009A534D53E6FA
:100B3000B24259D800D18AE0011C62E75F46C90879
:100B40007B07039E0B437C026D0501229946240B13
:100B50006D0D324040E64A4B049FDB1B382B10DD05
:100B6000039C0122224000240025A14634E60121F5
:100B7000494248E7029304E71F1C21E7019C0394C4
:100B800041E71F2B40DC3F48049F0C1C3A18584695
:100B90009140DC40904020430A1C511E8A41011CB8
:100BA00011435A46DA40131C480709D00F220A4065
:100BB000042A05D00A1D8A42894149425B18111C4A
:100BC0001A0234D5039C0122224000240125A146AB
:100BD00002E6009F02214942B9448B44B94589414C
:100BE00049420919CB18A4E6009D881E6900A94254
:100BF000AD416D422C19361900913AE7002B00D017
:100C000033E70024009437E71F4A049C5D46121B1B
:100C1000D5402A1C202B1FD01C4E5F46A3199F4095
:100C20003B1C19434B1E994111430023BCE75A0753
:100C3000C9080A43039F91465B0201221C0B3A40FC
:100C40000025C9E54E45C4D89346002172E6009FB1
:100C50009F42C9D3011C0FE70023E2E7802424034D
:100C60005F463C432403240B019A8946034DB3E5B8
:100C7000FF030000FFFFFFFEFE070000FF0700006C
:100C800002FCFFFF1E040000E2FBFFFF3E04000029
:100C9000F0B5564644465F464D46F0B41F1C0B0364
:100CA0001B0B9A464B0087B0041C80465B0DC80F97
:100CB000161C02938146002B68D0694B0299994219
:100CC00032D08022534652031A43D200630F1A4394
:100CD0009246644AE000891880460291002400256B
:100CE0003B031B0B9B467800FB0F321C400D03930C
:100CF00000D175E05A4B984269D080225946520380
:100D00000A43730FD2001A43564B9346C018F200A1
:100D1000002303994E4671401C430F2C00D9A9E0D3
:100D2000514EA4003459A74653461C4300D087E0D7
:100D30000025AA46A84608240225D1E74946022DE7
:100D40006CD0032D00D117E2012D00D058E10D40E9
:100D5000EDB20024A9460023A0460020002125036F
:100D60000A0D1C052D0B1205404B2A43134023434B
:100D70005B004C465B08E207191C4046114307B074
:100D80003CBC90469946A246AB46F0BD5346234331
:100D900050D05346002B00D184E1504600F0AEFA0B
:100DA000031E272B00DD76E128210D1A211C083BAC
:100DB0005246E9409A400D1C1543221C9A40AA460F
:100DC00090462B4B00241B1A0293002588E75B46B4
:100DD0001E430323002E9CD1B3460022022398E732
:100DE0005B46334321D05846002800D14EE100F045
:100DF00085FA272800DD42E128210F1A021C311C48
:100E0000083A5B46F94093400F1C1F43331C934044
:100E1000BB461A1C164B181A00237AE701230B4015
:100E200000249946A0460E4B97E70027BB460022B8
:100E300001236EE7002104248A46884601254FE7F6
:100E40000C2403254CE700258024A9462403A8464A
:100E5000034B82E7DA46904603991D1C6FE7C046B4
:100E6000FF07000001FCFFFFCC750000FFFF0F80B3
:100E70000DFCFFFF029F160C381804904046070C2B
:100E80000004000C1204120C031C5343041C3D1CF0
:100E90007443554398463B1C73436419A446444627
:100EA0000293230C63449D4204D9029D8024640272
:100EB0002D1902951D0C039545462C041B04240C8A
:100EC0001C1905945C46230C051C58432404240C6F
:100ED0008446381C604365435F438146CC44280CFC
:100EE0006044BB46814502D980277F02BB442D0464
:100EF000070C2D0C000440195546BC462F04E34452
:100F00008446280C3D0C2F1C5743B8462F1C7743B2
:100F10004243B94647463F0C9144BA46D144464302
:100F20004A4502D980225202B6184F463A0CB618EA
:100F30003A0447463F043F0CB8462F1C67435D43C5
:100F40004443584365190190380C2D184244B84663
:100F5000AC4204D9019880235B02C0180190039C25
:100F6000029F201C6044C0196045A441474664426A
:100F7000A4462B043C049946240C4C44A046D84477
:100F80008018C246E24490429241574652429146EE
:100F9000F219E245BF417F424B46BC46D845BF41AE
:100FA000D4187F4263461F432D0C7F19B2429241F1
:100FB0004C45AD4152426D421543019E7D19AB191E
:100FC000E20D5B02059F134342023A439A46531EC9
:100FD0009A41C30D101C18436402204380465046BA
:100FE000C0010DD5454601225646049C6B082A4097
:100FF0001A43F30701341A43760804949046B24624
:10100000049E634FF319002B61DD404640070BD06F
:101010000F2244462240042A06D04246043242456A
:1010200080414042824490465546ED0107D5594BD8
:101030005646049F80201E40C000B2463B18564AC8
:10104000934200DDEAE644465546E208680710434D
:1010500001226C025B050A408046240B5B0D914621
:101060007BE6DA4690461D1C69E680242403574639
:1010700027421CD13C432403240B484B6DE6031C40
:10108000283B311C99408B460022C3E6301C00F0FF
:1010900035F92030ADE6283B211C994000228A46D4
:1010A00090468EE6201C00F029F9203078E658465C
:1010B000204207D1044303992403240B8946904618
:1010C000364B4AE63C432403240B344B45E6344B71
:1010D000049E9B1B382B06DD01230B400024994600
:1010E000A046002339E61F2B25DC049C2D4D4646E7
:1010F0006019524644468640DC4082405746301CC8
:101100002243DF40441EA04102433B1C540709D048
:101110000F201040042805D0101D904292415242E9
:101120009B18021C1D021AD501230B40002499466E
:10113000A046012311E61C48049C5546001BC540EF
:10114000281C202B16D0194E5746A21997403A1C3E
:1011500043461A43531E9A4102430023D6E75807D9
:101160005B02D2081C0B01230B40104399468046BA
:101170000023F2E50022EBE78024240350460123FC
:10118000044319402403240B8946044BE5E5C0467B
:10119000FF030000FFFFFFFEFE070000FF07000047
:1011A00002FCFFFF1E040000E2FBFFFF3E04000004
:1011B00070B50B1C124C09030E0B5900021C490D93
:1011C000DD0F0020A14211DD0E4881420FDC80209E
:1011D000400306430C48401A1F280BDD0B4A521AE5
:1011E000D640321C5042002D00D1101C70BD084B5F
:1011F000E818FBE7074BC240C9188E403243F1E7BD
:10120000FE0300001D04000033040000130400006E
:10121000FFFFFF7FEDFBFFFFF8B5041E31D0C70FC6
:1012200000D04442201C00F069F8184D2D1A0A28FD
:1012300019DD0B38844024036D05240B6D0D3A1C19
:101240000026002000210B0D2403240B1B05234343
:101250000F4C2D051C402C4364006408D307211C4F
:10126000301C1943F8BD061C1536231CB3401E1C48
:101270000B23181AC44024036D05240B6D0D3A1C72
:10128000DFE70022002500240026DAE71E04000024
:10129000FFFF0F8010B5041E28D000F02FF8154A6C
:1012A000121A0A2815DD0B38844024035205240B3A
:1012B000520D0023002000212403181C0B0D240BC9
:1012C0001B0523430C4C12051C40144364006108A9
:1012D00010BD031C1533211C99400B1C0B21081A4F
:1012E000C44024035205240B520DE3E700220024DE
:1012F0000023DFE71E040000FFFF0F801C210123F5
:101300001B04984201D3000C10391B0A984201D3E8
:10131000000A08391B09984201D30009043902A2C6
:10132000105C40187047C04604030202010101012D
:10133000000000000000000072B608480849016083
:10134000084880470849094A094B9B1A03DD043BBA
:10135000C858D050FBDC62B60648804708ED00E074
:1013600000000000BD600000887A000000F0FF1F50
:1013700068F0FF1F71040000104800471048004744
:1013800010480047104800471048004710480047E1
:1013900010480047104800471048004710480047D1
:1013A00010480047104800471048004710480047C1
:1013B00010480047104800471048004779130000C4
:1013C0007D130000811300008513000089130000C5
:1013D0008D130000E1430000F943000011440000B8
:1013E00029440000E93D0000093E0000252A0000D4
:1013F000612A0000412C0000652C000075430000AC
:101400008446101C62468C46191C634600E0C046A8
:101410001FB500F01DFC002801D40021C8421FBDEB
:1014200010B500F04DFB4042013010BD10B500F08A
:101430000FFC002801DB002010BD012010BDC046BC
:1014400010B500F005FC002801DD002010BD0120D2
:1014500010BDC04610B500F07DFB002801DC002067
:1014600010BD012010BDC04610B500F073FB002870
:1014700001DA002010BD012010BDC046F8B55F465E
:10148000564644464D46F0B40C034D00CE0F610A5B
:10149000440F2143C400180380465800400D824683
:1014A000D80F84464046400A530F0343D0006D0DC9
:1014B000371C83465246664500D1A4E0AF1A002F80
:1014C00000DC09E1002A3BD1184300D0EAE06307C1
:1014D00000D187E00F232340042B00D182E0221D9E
:1014E000A242A4416442802309191B040B40371C0B
:1014F000141C002B00D17CE0CE4B01359D4200D165
:1015000005E1CD4BE40819404807490204430B0BA1
:10151000002000211B031A0B0B0D6D051B05134347
:101520006A08C64DFF071D4015436D006D08291C54
:101530003943201C3CBC90469946A246AB46F8BDB8
:10154000BC488542C3D0802000040343382F00DD0F
:10155000F0E01F2F00DD24E12020C01B1A1C814673
:1015600082405846F8400243944658464A469040C6
:10157000421E9041FB40624602431F1CA21A944245
:10158000A4416442C91B091B141C0B029FD54902CC
:101590004F0A002F00D1C8E0381CFFF7AFFE021C35
:1015A000083A1F2A00DDB5E02821091A201C9740BF
:1015B000C84007439440954200DDB2E0551B691CCA
:1015C0001F2900DDDCE01F22551B3B1C221CAB4009
:1015D000CA40AC40651EAC411343CF401C43391C8C
:1015E000002574E780231B040B40371C002B00D020
:1015F00082E7904B4807E4080443C9089D4248D05D
:1016000009030B0B84E7AA1A9446002A00DC98E031
:101610005046002852D08748854200D157E78020A5
:10162000000403436246382A00DDFCE01F2A00DD87
:101630004AE120226046101A1A1C824082469146D6
:1016400058466246D0404A46024390465846524663
:101650009040421E9041424602436046C3401219E8
:10166000A242A441644259180919141C080200D46A
:101670002DE7704B01359D4200D122E16E4B600891
:101680001940012323401C1C0443CB071C43490879
:101690001DE7231C0B433AD080231B030B431B0382
:1016A0001B0B35E7013F002F65D15846221A9442A3
:1016B000A4416442C91A091B141C66E75846184322
:1016C00000D104E70122524294446046002800D031
:1016D000C5E058460219C3E7002F73D1681C4005C6
:1016E000400D012800DCDEE05A46A21A9442BF41B8
:1016F000C81A7F42C71B380200D489E05A46141B1F
:10170000A3459241591A52428F1A664641E7002377
:101710000024FDE6271C283887400024954200DC81
:101720004CE74549AD1A3940D1E6201CFFF7E6FDEC
:10173000203034E75A461A43531E9A41D2B200274A
:101740001CE7002A00D0DCE0681C4205520D012A8B
:1017500000DC8DE0374DA84200D1F3E05D462A1948
:10176000A242A441644259180919CC0752081443F3
:101770004908051CABE62F48854200D0E6E6A6E600
:101780002B1C1F3B3A1CDA40131C20296CD03F2233
:10179000551BAF403C43601E84411C430021002583
:1017A00095E6381C20381A1CC240101C202F5DD032
:1017B0004022D71BBB405A461A43531E9A4102434C
:1017C0000027DBE6002D3BD01A4DAA4500D193E05F
:1017D00080252D047F422943382F00DDACE01F2FE8
:1017E00000DD29E12025ED1B081C261CA840FE4039
:1017F000AC400643651EAC413443F9405D462C1BAA
:10180000A34592415B1A5242991A55466646BCE678
:10181000131C3B43141C002B00D0BAE60027002108
:1018200000250024E5E65A461A43531E9A41D2B2D7
:10183000002314E7FF070000FFFF7FFFFFFF0F807B
:101840000D1C254358D0FF43002F51D1041BA34545
:101850009241591A5242891A5546664695E696486B
:10186000854200D0DEE632E6002793E70023A2E7B8
:10187000081C2043002D00D0C4E0002800D1F7E070
:101880005846184300D122E658460219A242A44104
:10189000644259180919141C0A0200D417E6874B30
:1018A0000125194013E6081C2043002D39D10028DA
:1018B00071D15946194303D0191C5C46664606E6A9
:1018C00000270021002494E6604620381A1CC240FC
:1018D00060469146202800D1ACE04022121A934085
:1018E0005A461A43531E9A414B461A430023B6E602
:1018F000714DAA4500D06FE7191C5C4655466646F7
:10190000E5E5002D22D10D1C254377D0D543002DD0
:1019100071D15C445C459241591852428918554630
:10192000A4E600284DD15946194300D194E0191C72
:101930005C466646604DCAE50C43611E8C41E4B2CC
:1019400000215BE7051C0021002452E65A4DAA4500
:1019500054D05542802210040143382D00DD81E02F
:101960001F2D00DD92E02022501B0A1C844682407D
:10197000201CE8400243904662469440601E844129
:1019800042461443E9405C445C459241CB185242C4
:10199000991855466AE65846184300D197E55846C7
:1019A000271ABC429241C81A5242801A020266D5D6
:1019B0005846041BA3459241591A5242891A664659
:1019C00085E55846184333D04807E408044380208F
:1019D000C9080003014208D0DD08054205D1594677
:1019E000CA085C071443291C6646630FC9001943E3
:1019F000E400314D6BE5304A9245AED1191C5C468E
:101A0000554664E5002836D05846184310D0802546
:101A10004807E408C9082D0304432942E5D0D80843
:101A20002842E2D15D46EA085C071443011CDCE76A
:101A3000214D4CE5002353E73D1C203D0A1CEA40A4
:101A4000151C202F34D04026F71BB9400C43611ED3
:101A50008C412C430021D1E680210027C903164D7B
:101A60000024C6E50C43611E8C41E4B200218AE7E4
:101A7000191C5C462BE5191C5C460F4D27E5031C21
:101A80003B4300D11CE7011C3C1C20E520204042C8
:101A900040190A1CC2409046202D0BD04020451B07
:101AA000A9400C43611E8C4145462C4300216AE746
:101AB0000021CBE70021F4E7FF070000FFFF7FFFD5
:101AC000F0B55F4656464D464446F0B40D1C041C26
:101AD0008046E80F814618030F03000B3F0B83B0CD
:101AE00084461B48009749005E00DF0F490D92466F
:101AF000760DBB4681420CD01548864210D001209D
:101B0000B14215D003B03CBC90469946A246AB46C4
:101B1000F0BD009F01202743F4D10D488642EED14D
:101B2000604602430120002AECD10120B142E9D1F4
:101B3000009B6345E6D1D045E4D1D94506D00029C4
:101B4000E0D11C43201C441EA041DBE70020D9E764
:101B5000FF070000F0B55F4656464D464446F0B4D8
:101B6000CD0FDE0FAC461D032D0BB146374E0F03D4
:101B70004C00AB465D0080463F0B640D92466D0DF8
:101B8000B44232D0314EB54235D0002C0ED138435C
:101B900041424141081C002D0BD0002919D1CC45F0
:101BA0002DD0654668420123184318E0002DF6D178
:101BB000281C59460A4353425341002806D1002BA2
:101BC000EDD0634658420123184308E00020002B63
:101BD00005D14A46504250414042012318433CBC83
:101BE00090469946A246AB46F0BD3E1C0643C9D07E
:101BF00002204042F3E75E461643C6D0F8E7AC4207
:101C000007DC0BDA61464842484140420123184351
:101C1000E5E76646704201231843E0E75F450AD8CE
:101C20000ED000205F45DAD26546684268414042E6
:101C300001231843D3E76246504201231843CEE7FD
:101C4000D045F8D80020D045EED3C8E7FF07000004
:101C5000F0B556464D4644465F46F0B40D1C83B081
:101C6000041C0190E80F814618030F03000B3F0B83
:101C700084463548009749005E00DF0F490D9246C3
:101C8000760DB846814234D02F48864236D000299E
:101C900018D0002E1FD1341C67463A43534253419B
:101CA000002C1FD00020002B05D14246504250414D
:101CB00040420123184303B03CBC90469946A246DB
:101CC000AB46F0BD0098044360426041041C002E06
:101CD000E2D00028E9D1C14515D04F467842012312
:101CE0001843E8E7002BF6D04B465842012318432F
:101CF000E1E7009F02202743DDD1C5E767460220C8
:101D00001743D8D1C3E7B14204DD4A46504201230C
:101D10001843D0E7B14207DB00986045E4D80AD009
:101D2000009F00206745C6D24F4678427841404226
:101D300001231843BFE7019A5245D5D8019A0020E4
:101D40005245F1D3B7E7C046FF07000080B582B027
:101D500000AF7860084A0849084BC958084B194039
:101D60007B689806C0231B0503401943034BD150E1
:101D7000BD4602B080BDC0460070044004100000A3
:101D8000FFFFFFF380B582B000AF0120FFF7DEFF59
:101D900002F090FB031C7B60054996231A027B68C6
:101DA000081C111C022203F07DFEBD4602B080BD5E
:101DB0000040054080B500AF024A034B0349D150B3
:101DC000BD4680BD007004404410000000000310B8
:101DD00080B584B000AF3A1C0832104B111C1A1C9D
:101DE0000623081C111C1A1C04F0A2FB3B1C002239
:101DF0001A703B1C802252025A60FFF7DBFF3B1C2B
:101E00000833181C02F0B8FB3B1C181C02F018FB2E
:101E1000034B044A1A60BD4604B080BD2868000028
:101E200000F0FF1F006CDC0290B585B000AF786059
:101E30007B681B0C084A9B18FB60FB68FA681168FA
:101E40007A681204120C0120041C9440221C0A43DC
:101E50001A60BD4605B090BD0070044080B586B0E4
:101E600000AFF860B9607A607B68002B06D1094842
:101E700081235900084A094B02F00EFCBB689B0005
:101E8000FA68D3187B617B697A6812881A80BD462C
:101E900006B080BD38680000447A00001868000071
:101EA00080B584B000AFF860B960FB1D1A70FB68A4
:101EB000BA689200D258084B1A40FB1D1B781902D1
:101EC000E023DB000B40111C1943FB68BA68920049
:101ED000D150BD4604B080BDFFF8FFFF80B500AF14
:101EE000084B181CFFF7A0FF074B181C0221032208
:101EF000FFF7D6FF044B181C03210322FFF7D0FF86
:101F0000BD4680BD0C00381000C0044080B500AF55
:101F1000204B181CFFF788FF1F4B181CFFF784FF8E
:101F20001E4B181CFFF780FF1D4B181CFFF77CFF92
:101F30001C4B181C01210222FFF7B2FF194B181C81
:101F400002210222FFF7ACFF174B181C10210022C0
:101F5000FFF7A6FF154A1549154BC958154B1940EF
:101F6000134BD150114A1149134BCB580721181C60
:101F70008843011C104BD150104B181C0221032226
:101F8000FFF78EFF0D4B181C03210322FFF788FF7C
:101F9000BD4680BD090038100A0038100D00381009
:101FA0000C0038100090044000D004400070044041
:101FB0000C100000FFFFEFFF1010000000C00440F5
:101FC00080B584B000AF2A4B181CFFF72DFF294BBA
:101FD000181CFFF729FF3B1C0C3300221A803B1C06
:101FE0000C331A7804210A431A703B1C0C335A78BC
:101FF00007218A4301210A435A701F4A3B1C0C33B4
:10200000101C0D211A1CFFF729FF3B1C083300226E
:102010001A803B1C08331A7804210A431A703B1CAF
:1020200008335A7807218A4301210A435A70134A18
:102030003B1C0833101C12211A1CFFF70FFF3B1D1D
:1020400000221A803B1D1A7804210A431A703B1D96
:102050005A7807218A4301210A435A70074A3B1DD7
:10206000101C13211A1CFFF7F9FEBD4604B080BDF9
:10207000090038100A0038100090044000A0044005
:1020800080B582B000AF194B181CFFF7CDFE3B1D89
:1020900000221A803B1D1A7803210A431A703B1D47
:1020A0005A7807218A4304210A435A70104A3B1D7B
:1020B000101C06211A1CFFF7D1FE3B1C00221A80BF
:1020C0003B1C1A7803210A431A703B1C5A780721DB
:1020D0008A4304210A435A70054A3B1C101C0721FD
:1020E0001A1CFFF7BBFEBD4602B080BD0C003810C5
:1020F00000C0044090B585B000AF78607B681B0CD1
:10210000084A9B18FB60FB68FA6811687A68120439
:10211000120C0120041C9440221C0A431A60BD4684
:1021200005B090BD0070044080B584B000AF786009
:102130000323BB600023FB6009E00F4BFA689200A9
:10214000D2587B689A4206D0FB680133FB60FA687C
:10215000BB689A42F1D3FA68BB689A4206D3074932
:10216000074A084B081C4E2102F096FAFB68181C1F
:10217000BD4604B080BDC0466C7900008468000094
:10218000847900009C68000080B582B000AF786060
:1021900039603B68002B06D13649374A374B081C5B
:1021A000552102F079FA7B68181CFFF7BDFF021C6D
:1021B000334B9200D358181CFFF79CFF3B681B78E9
:1021C0001A1C07231A407B681A603B681B795A0166
:1021D00020231A403B685B78590280239B000B4008
:1021E0001A433B689B7999048023DB020B401A4316
:1021F0003B681B7A190480235B020B401A433B683F
:10220000DB79590480239B020B401A433B685B7ABD
:10221000D90480231B030B401A433B68DB78D905A4
:1022200080231B040B401A433B689B781906F0235C
:102230001B050B40111C19437A688423D1503B685D
:102240005B79002B09D07A688423D358C022111CF3
:1022500019437A688423D15008E07A688423D358DC
:10226000C022191C91437A688423D150BD4602B024
:1022700080BDC0468468000094790000B868000002
:102280007879000080B582B000AF78607B68002B61
:1022900006D11449144A154B081C852102F0FCF99B
:1022A0007B6800221A707B6800225A707B680022CB
:1022B0001A717B6800225A717B6800229A717B68D0
:1022C0000022DA717B6800221A727B6800225A723F
:1022D0007B6800229A707B680022DA70BD4602B0EB
:1022E00080BDC04684680000A0790000B868000086
:1022F00080B588B000AFF860B960111C1A1CFB1DD6
:102300001970BB1D1A70BB68002B06D17549764A3F
:10231000764B081CA72102F0BFF9BB6A002B06D13F
:102320007049714A724B081CA82102F0B5F9FB1DD7
:102330001B78002B06D16B496B4A6E4B081CA921F8
:1023400002F0AAF9FB6A002B06D16649664A6A4B7D
:10235000081CAA2102F0A0F9FB681B681A1C0723BD
:102360001340FA6A111CD9400B1C7B61BB1D1B7802
:10237000002B02D0012B10D01EE0FB681B6820222E
:10238000191C91430A1CFB681A607869B96AFEF748
:10239000ABF8031C013BFB6110E0FB681B682022CB
:1023A0001A43FB681A60BB6A5B007869191CFEF768
:1023B0009BF8031CFB6101E001238EE0FA694F4B9F
:1023C0009A4201D9012388E0FB68FA699A603B1CB4
:1023D000193300221A7077E0BB689B78642B01D90F
:1023E00001237AE0BB689B78002B04D13B1C1A3395
:1023F00000221A8018E0BB689B78FA695343181CC6
:102400006421FEF771F8031C1A1C3B1C1A331A8056
:102410003B1C1A331A88FB699A4205D3FB699AB2AE
:102420003B1C1A3301321A80BB681B78181CBB682E
:102430001B78FA680133DB00D3185B683C22191C57
:1024400091430A1CF968431CDB00CB185A60BB6837
:102450001B78FA680133DB00D3185A683C23134019
:10246000F5D1BB681B78181CBB681B78FA68013370
:10247000DB00D3185A68BB685B789B0013432022AB
:102480001A43F968431CDB00CB185A60BB681B7801
:10249000FA680133DB00D3185A683C231340F5D0A7
:1024A000BB681B783A1C1A321288F9680133DB00CA
:1024B000CB189A60BB680333BB603B1C19331A7896
:1024C0003B1C193301321A703A1C1932FB1D127869
:1024D0001B789A4200D27FE70023181CBD4608B043
:1024E00080BDC04684680000B8790000C068000064
:1024F000CC680000D8680000E4680000FFFF00001E
:1025000080B584B000AF7860081C111C1A1CFB1C3D
:102510001870BB1C19707B1C1A70FB1C1A78796828
:10252000264B99420ED07968254B994208D079689C
:10253000244B994201D1022305E001235B4202E0D2
:10254000022300E006239A4207DB1F486823191C78
:10255000FF311E4A1E4B02F09FF87B689A683B1CB5
:102560000C331A803B1C0C331B887A1C12785343A3
:10257000181C6421FEF706F8031C1A1C3B1C0E33C2
:102580001A803A1C0E323B1C0C3312881B889A426C
:1025900006D33B1C0E333A1C0C32128801321A80CF
:1025A000FB1C1B783A1C0E32128879680133DB0061
:1025B000CB189A60BD4604B080BDC0460080034081
:1025C0000090034000A0034084680000C879000028
:1025D000F068000090B585B000AF78607B681B0C98
:1025E000084A9B18FB60FB68FA6811687A68120455
:1025F000120C0120041C9440221C0A431A60BD46A0
:1026000005B090BD0070044080B584B000AF786024
:102610000323BB600023FB6009E00F4BFA689200C4
:10262000D2587B689A4206D0FB680133FB60FA6897
:10263000BB689A42F1D3FA68BB689A4206D307494D
:10264000074A084B081CA92102F026F8FB68181C51
:10265000BD4604B080BDC046E0790000346900008A
:10266000F87900004C69000080B588B000AFF860D0
:10267000B9607A60BB68002B06D17A497A4A7B4BF5
:10268000081CD42102F008F8BB681B68002B06D197
:102690007449754A764B081CD52101F0FDFF3B1C9F
:1026A0001E3300221A803B1C1D3300221A700023A7
:1026B000BB61BB681B681B017868191CFDF714FF20
:1026C000031C1A1C3B1C1E331A803B1C1E331B8828
:1026D000002B03D13B1C1E3301221A8000237B6197
:1026E0007B685A00BB681B68101C191CFDF7FCFEB8
:1026F000031C99B23B1C1E331B88202252425343B9
:102700009AB23B1C12338A181A807B685A003B1C11
:102710001E331B8859013B1C12331B88CB18101C1D
:10272000191CFDF7E1FE031C7B61BB681A687B691D
:102730009A4204D2BB681B687A69D31A03E0BB686B
:102740001A687B69D31ABB61BB681B68181C6421BB
:10275000FDF7CAFE031C1A1C131C5B009A18BB6908
:102760009A4201D2434B79E0FB68181CFFF74CFFFB
:10277000021C414B9200D358181CFFF72BFFFB683B
:10278000DB78DBB20C229343DAB2FB68DA70FB68C9
:102790001B78DBB21F229343DAB23B1C1E331B882B
:1027A0001B0A9BB2DBB21343DAB2FB681A703B1C04
:1027B0001E331B88DAB2FB685A70FB689B7ADBB267
:1027C0001F229343DAB23B1C12331B88D9B21F235A
:1027D0000B40DBB21343DAB2FB689A72FB689B785A
:1027E000DAB23B1C1D3313218A431A70BB681B7974
:1027F000002B0BD0BB681A793B1C1D331B7813438D
:10280000DAB23B1C1D3310210A431A70FB683A1CD4
:102810001D3212789A703B1C1D33FA68D2781A70F8
:10282000BB685B79002B07D03B1C1D333A1C1D3263
:10283000127808210A431A70BB689B79002B07D0D5
:102840003B1C1D333A1C1D32127804210A431A70B6
:10285000FB683A1C1D321278DA700023181CBD4642
:1028600008B080BD346900000C7A0000B868000030
:1028700068690000F5030000EC79000080B582B0C3
:1028800000AF78607B68002B07D10C485E23191CD1
:10289000FF310B4A0B4B01F0FFFE7B68E122520235
:1028A0001A607B6800221A717B6800225A717B686B
:1028B00000229A71BD4602B080BDC0463469000056
:1028C000187A0000B868000080B584B000AF786066
:1028D0007B681B79DBB21A1C7B685B79DBB21B025D
:1028E0001343FB60FB68181CBD4604B080BDC046A6
:1028F00080B584B000AFF860B9607A600CE0FB6826
:102900001B79DBB2DBB25BB2002BF8DABB685A1C76
:10291000BA601A78FB68DA717B685A1E7A60002BFD
:10292000EDD1BD4604B080BD80B586B000AFF86083
:10293000B9607A60BB68002B33D11F488F239900A0
:102940001E4A1F4B01F0A8FEFB68181CFFF7BCFFD6
:10295000031C7B617A690823134001D0194B26E0E0
:102960007A690423134001D0174B20E07A690223CF
:10297000134001D0154B1AE07A690123134002D0AD
:10298000FD239B0013E0FB681B79DBB21A1C20239C
:102990001340D9D0BB685A1CBA60FA68D279D2B257
:1029A0001A707B685A1E7A60002BECD10023181C29
:1029B000BD4606B080BDC04634690000307A0000D4
:1029C00090690000F1030000F2030000F30300002F
:1029D00080B582B000AF786039607B68DB78DBB2AD
:1029E0001A1C102313400AD00B4B1B680B4A396882
:1029F00089008A587968081C111C984709E0084B1F
:102A00001B68064A396889008A587968081C111CB5
:102A10009847BD4602B080BD14F1FF1F0CF1FF1FA7
:102A200018F1FF1F80B500AF084B1B68002B06D1C3
:102A30000748F9239900074A074B01F02DFE074B81
:102A4000181C0021FFF7C4FFBD4680BD0CF1FF1F1D
:102A5000986900003C790000D869000000600740D8
:102A600080B500AF084B5B68002B06D10748FB23FD
:102A70009900074A074B01F00FFE074B181C012174
:102A8000FFF7A6FFBD4680BD0CF1FF1F986900004F
:102A900054790000E86900000070074080B586B0F6
:102AA00000AFF8607A603B1C0B330A1C1A700023DD
:102AB0007B613B1C0B331A78FB681A61FB680122AF
:102AC0001A75FB687A689A61FB680122DA61FB6813
:102AD00001225A73FB6800229A60FB681A68FB683F
:102AE0000833101C191C00F0AFFF031C7B617B69CD
:102AF000181CBD4606B080BD80B584B000AF7860BC
:102B0000FB1C1970BB1C1A700023FB603B1C0833B4
:102B1000BA1C12781A70FB1C1A787B681A617B68E1
:102B200001221A757B683A1C08329A617B6801227F
:102B3000DA617B6800225A737B6800229A607B68A6
:102B40001A687B680833101C191C00F07DFF031CF9
:102B5000FB60FB68181CBD4604B080BD80B586B024
:102B600000AFF860B9607A60BB68002B52D12E4884
:102B7000A22399002D4A2E4B01F08EFDFB68181CF4
:102B800000F0A6FB031C7B617A6980231B031340C2
:102B900008D0FA6880231B03101C191C00F0A4FB4A
:102BA000244B3DE07A698023DB02134008D0FA68A9
:102BB0008023DB02101C191C00F096FB1E4B2FE03B
:102BC0007A6980239B02134008D0FA6880239B0215
:102BD000101C191C00F088FB184B21E07A69802337
:102BE0005B02134009D0FA6880235B02101C191C99
:102BF00000F07AFBA423DB0012E0FB685A68802314
:102C00009B031340BAD0BB685A1CBA60FA68D268FA
:102C1000D2B21A707B685A1E7A60002BEDD1002365
:102C2000181CBD4606B080BD4C6A00002879000023
:102C3000646A00001D0500001E0500001F0500005D
:102C400080B500AF044B1A68044B1B680449081C8C
:102C5000191C9047BD4680BD08F1FF1F00F1FF1F02
:102C60000040054080B500AF044B1A68044B5B6818
:102C70000449081C191C9047BD4680BD08F1FF1F80
:102C800000F1FF1F0050054080B584B000AF7860B0
:102C90003B1C0F3300221A707A683B1C0F33101C48
:102CA0002B211A1CFFF7FAFE031C002B01D0012375
:102CB000B6E03B1C0F331A783B1C0F331A703B1CD9
:102CC0000F331B787A68101C2B211A1CFFF714FF96
:102CD000031C002B01D00123A2E07A683B1C0F33B8
:102CE000101C2A211A1CFFF7D9FE031C002B01D04F
:102CF000012395E03B1C0F331B7801229343DAB28A
:102D00003B1C0F331A703B1C0F331B787A68101C66
:102D10002A211A1CFFF7F0FE031C002B01D001230F
:102D20007EE07A683B1C0F33101C0E211A1CFFF743
:102D3000B5FE031C002B01D0012371E03B1C0F33B7
:102D40001B7803229343DAB23B1C0F331A703B1CEF
:102D50000F331B7801221343DAB23B1C0F331A7076
:102D60003B1C0F331B787A68101C0E211A1CFFF7CE
:102D7000C3FE031C002B01D0012351E07A683B1CE9
:102D80000F33101C09211A1CFFF788FE031C002BAF
:102D900001D0012344E03B1C0F331A783F2313403A
:102DA000DAB23B1C0F331A703B1C0F331B787A6866
:102DB000101C09211A1CFFF79FFE031C002B01D0D9
:102DC00001232DE07A683B1C0F33101C2A211A1CAA
:102DD000FFF764FE031C002B01D0012320E03B1C05
:102DE0000F331B7801221343DAB23B1C0F331A70E6
:102DF0003B1C0F331B7802229343DAB23B1C0F3388
:102E00001A703B1C0F331B787A68101C2A211A1C7D
:102E1000FFF772FE031C002B01D0012300E000230A
:102E2000181CBD4604B080BD80B584B000AF78608A
:102E300039603B1C0F3300221A703B1C0E330022FA
:102E40001A707A683B1C0E33101C00211A1CFFF705
:102E500025FE031C002B01D0012373E03B1C0E3325
:102E60001B781A1C08231340EBD07A683B1C0F33E5
:102E7000101C01211A1CFFF711FE031C002B01D0AE
:102E800001235FE03B1C0F331A783B681A707A68A5
:102E90003B1C0F33101C02211A1CFFF7FFFD031C03
:102EA000002B01D001234DE03B1C0F331A783B6807
:102EB0005A707A683B1C0F33101C03211A1CFFF751
:102EC000EDFD031C002B01D001233BE03B1C0F3325
:102ED0001A783B689A707A683B1C0F33101C0421E7
:102EE0001A1CFFF7DBFD031C002B01D0012329E096
:102EF0003B1C0F331A783B68DA707A683B1C0F333F
:102F0000101C05211A1CFFF7C9FD031C002B01D062
:102F1000012317E03B1C0F331A783B681A717A685B
:102F20003B1C0F33101C06211A1CFFF7B7FD031CB6
:102F3000002B01D0012305E03B1C0F331A783B68BE
:102F40005A710023181CBD4604B080BD90B585B0F1
:102F500000AF78607B681B0C084A9B18FB60FB681D
:102F6000FA6811687A681204120C0120041C94405B
:102F7000221C0A431A60BD4605B090BD0070044093
:102F800080B584B000AF78600023FB6009E00E4B91
:102F9000FA689200D2587B689A4205D0FB680133E8
:102FA000FB60FB68012BF2D9FB68012B06D90749AE
:102FB000074A084B081C8D2101F06EFBFB68181CAA
:102FC000BD4604B080BDC046C8780000206C00003B
:102FD000D8780000386C000090B58DB000AFF86074
:102FE000B9607A60BB68002B06D19749974A984B25
:102FF000081CE42101F050FBBB681B68002B06D1C4
:103000009149924A934B081CE52101F045FBBB68AE
:103010001B68BB6100237B623B1C2A3300221A80A1
:1030200004233B625DE0BB681B683A6A53437868DF
:10303000191CFDF759FA031C1A1C3B1C28331A8073
:103040003B1C28331B88002B03D13B1C2833012257
:103050001A803B1C28331B883A6A53437868191C32
:10306000FDF742FA031C7B61BB681B687A69D31ABF
:10307000FB61BB681C683B1C28331B8801333A6A20
:1030800053437868191CFDF72FFA031CE21AFB69F9
:103090009A4215D2BB681C683B1C28331B8801333D
:1030A0003A6A53437868191CFDF71EFA031CE31AA9
:1030B000FB613B1C28331A883B1C283301321A80E1
:1030C000FA69BB699A4209D8FB69BB613B6A7B62BA
:1030D0003B1C2A333A1C283212881A803B6A01337F
:1030E0003B623B6A202B9ED9BB681B68181C64217D
:1030F000FDF7FAF9031C1A1C131C5B009A18BB6934
:103100009A4201D2544B9BE0FB68181CFFF738FF32
:10311000021C524B9200D358181CFFF717FFFB6894
:103120009A684F4B1A40FB689A60FB681B68FB6209
:103130007B6A032B07D97B6A072B04D8FB6A8022A2
:1031400092021343FB62FA6A464B1340FB627B6AAE
:10315000013B1A06F8235B051340FA6A1343FB622E
:10316000FB6A5B0B5B03FB623B1C2A331B88DB04A3
:10317000DA0CFB6A1A43FB681A60FB681A683A4B60
:103180001A40FB681A60FB689B6813229343FB623A
:10319000BB681B79FA6A1343FB62BB681B79002B7F
:1031A00003D0FB6A10221343FB62FB68FA6A9A6041
:1031B000FB681A682D4B1340FB62BB68DB795A032E
:1031C00080239B011A40FB6A1A43FB681A60284B54
:1031D000FB62FB6A802212061343FB62FB6AC02279
:1031E00012021343FB62BB689B79002B05D0FB6A7C
:1031F000802292051343FB6203E0FA6A1A4B1340E4
:10320000FB62FB685A68FB6A1A43FB685A60FB68FA
:103210009B68FB62BB681B7A002B04D0FB6A802290
:1032200012031343FB62BB685B7A002B04D0FB6A7A
:103230008022D2021343FB62FB68FA6A9A60002381
:10324000181CBD460DB090BD206C0000EC7800004D
:10325000186C0000686C000021050000D0780000A8
:10326000FFFFF3FFFFFFFFE0FFFFFFDFFFDFFFFFD9
:1032700000001F4080B582B000AF78607B68002BF3
:1032800006D11048DD2359000F4A104B01F004FA13
:103290007B68E12252021A607B6800221A717B6807
:1032A00000225A717B6800229A717B680022DA71D1
:1032B0007B6800221A727B6800225A72BD4602B0F7
:1032C00080BDC046206C0000F8780000186C00003B
:1032D00080B584B000AF78607B685B68FB60FB689A
:1032E000181CBD4604B080BD80B584B000AF7860C6
:1032F00039607B685B68BB60BB685B005B08BB6078
:103300003B68DB0FDB07BA681343BB60BA68144B3A
:103310001340BB603A68134B1340BA681343BB6059
:10332000BA68114B1340BB603A68C0231B021340BC
:10333000BA681343BB607B68BA685A607B68181C24
:10334000FFF7C6FF031C3A68134002D0074BFB602F
:1033500001E00023FB60FB68181CBD4604B080BD83
:10336000FFFFE0BF00001F40FF3FFFFF1A05000006
:1033700080B584B000AFF860B9607A60BB68002B9C
:1033800012D10D480D490E4A0E4B01F085F9FB682C
:103390005A6880231B041340F9D0BB685A1CBA60DA
:1033A0001B781A1CFB68DA607B685A1E7A60002B57
:1033B000EDD1BD4604B080BD206C00007902000054
:1033C00010790000606C000080B586B000AFF86036
:1033D000B9607A60BB68002B02D07B68002B06D1F5
:1033E0004148ED235900414A414B01F055F9FB6832
:1033F000181C00F0DFFD021C3E4B9200D358181C35
:1034000000F07EFDFB689B78DAB27F231340DAB2CE
:10341000FB689A70FA68384B101C191C00F0A0FD6C
:10342000BB685A68F9687B68081C111C1A1C00F0FC
:10343000AFF83B1C1733FA6852791A703B1C1733EC
:103440003A1C1732127820218A431A70BB685B78C5
:103450005B01DAB220231340D9B23B1C17333A1C6C
:10346000173212780A431A70FB683A1C1732127826
:103470005A713B1C1633FA6892791A703B1C16334A
:103480003A1C163211787F220A401A70BB689B786A
:10349000DB01D9B23B1C16333A1C163212780A43B0
:1034A0001A703B1C16333A1C163212780F218A43CD
:1034B0001A70BB681A7A0F231340D9B23B1C16331B
:1034C0003A1C163212780A431A70FB683A1C1632FC
:1034D00012789A71BB681B78DB01DAB2FB689A70CC
:1034E000BD4606B080BDC046906C00004478000028
:1034F000A86C00002C7800001250000080B582B04B
:1035000000AF78607B68002B05D10C480C490D4A50
:103510000D4B01F0C1F87B680C4A5A607B680022B1
:103520005A707B6800229A707B6800221A727B684E
:1035300001221A70BD4602B080BDC046906C0000EA
:103540002102000054780000C46C0000A086010035
:1035500080B582B000AF786039603A68402313408C
:1035600007D07B689B78DBB240229343DAB27B685A
:103570009A703A682023134007D07B689B79DBB2AE
:1035800070229343DAB27B689A71BD4602B080BD67
:1035900080B58CB000AFF860B9607A6001235B42FF
:1035A000FB620023BB6200237B623B1C23330022AF
:1035B0001A704AE03B1C23331B780122111C9940EE
:1035C0000B1CFB613B1C223300221A7031E03B1CB8
:1035D00022331A78294B5200D35AFA695343786838
:1035E000191CFCF781FF031CBB61BA68BB699A42D6
:1035F00003D9BA68BB69D31A02E0BA69BB68D31AA7
:103600007B617A69FB6A9A420CD23B1C23331B789C
:10361000BB623B1C22331B787B627B69FB627B694C
:10362000002B0BD03B1C22333A1C22321278013281
:103630001A703B1C22331B783F2BC8D93B1C233309
:103640003A1C2332127801321A703B1C23331B7848
:10365000022B02D8FB6A002BACD1BB6ADBB29B0108
:10366000DAB27B6AD9B23F230B40DBB21343DAB242
:10367000FB685A70BD460CB080BDC046A077000004
:1036800080B584B000AF7860FB1C1970BB1C1A7049
:103690000023FB607B68181C00F0C6F8031CBB60AD
:1036A000BA682023134002D0124BFB601DE07B68F8
:1036B0009B78DBB230221343DAB27B689A707B6866
:1036C0001B7BDBB21A1C01231340F8D0FB1C1B78B8
:1036D000DB18DAB2BB1C1B78012B01D1012300E0FF
:1036E00000231343DAB27B681A71FB68181CBD46CD
:1036F00004B080BD4C04000080B586B000AF786097
:10370000FB1C1970BB1C1A7000237B617B68181CA2
:1037100000F08AF8031CFB603B1C133306221A706E
:10372000FA682023134009D07B689B78DBB21A1C0F
:103730002023134002D1214B7B613AE03B1C0B3329
:103740007A6852781A703B1C0B331A783F23134067
:10375000DAB27B685A707B689B78DBB21422134321
:10376000DAB27B689A707B683A1C0B3212785A7016
:1037700000E0C0463B1C13331B783A1C1332591E21
:103780001170002BF5D17B681B7BDBB21A1C012367
:103790001340F8D0FB1C1B78DB18DAB2BB1C1B787B
:1037A000012B01D1012300E000231343DAB27B682F
:1037B0001A717B69181CBD4606B080BD4C04000020
:1037C00080B584B000AF78600023FB603B1C0A33F7
:1037D000012252421A807B689B78DBB238229343E5
:1037E000DAB27B689A707B68DB78DBB21A1C202324
:1037F00013400BD03B1C0A333A1C0A321288013AA0
:103800001A803B1C0A331B88002BECD13B1C0A336B
:103810001B88002B02D18A23DB00FB60FB68181C8D
:10382000BD4604B080BDC04680B584B000AF7860AE
:103830007B68DB78DBB2FB607B689B79DBB21A1CB0
:103840004023134004D0FB688022D2011343FB6065
:103850007B689B79DBB21A1C1023134004D0FB68F1
:10386000802252011343FB60FB68181CBD4604B064
:1038700080BDC04680B586B000AFF860B9607A60A0
:103880003B6000237B613B1C133300221A70FB68F2
:10389000DB78DBB2DBB25BB2002BF8DAFB6802222A
:1038A000DA70FB689B78DBB210221343DAB2FB6854
:1038B0009A7030E0BB685A1CBA601A78FB681A71BB
:1038C000FB68DB78DBB21A1C02231340F8D03B1CE8
:1038D0001333FA68D2781A70FB680222DA703B1C44
:1038E00013331A781023134004D0FB681022DA70C7
:1038F000184B7B613B1C13331A780123134007D00C
:103900007B68002B04D0FB680122DA70124B7B61CC
:103910007B69002B04D17B685A1E7A60002BC9D1C9
:103920007B69002B03D13A680423134003D07A69E2
:10393000094B9A4208D1FB680222DA70FB68181C16
:10394000FFF73EFF031C7B617B69181CBD4606B078
:1039500080BDC0464F0400004E04000080B586B014
:1039600000AFF860B9607A603B6000237B613B1C6C
:10397000133300221A703B1C13331B78DBB2013364
:10398000DAB23B1C13331A70FB68DB78DBB2DBB2B4
:103990005BB2002BF8DAFB680222DA70FB689B78D6
:1039A000DBB218229343DAB2FB689A707B68012B72
:1039B00007D1FB689B78DBB208221343DAB2FB68BD
:1039C0009A70FB681B79DAB23B1C13331A7031E032
:1039D000FB68DB78DBB21A1C02231340F8D0FB68CB
:1039E0000222DA707B68002B12D13A68042313405C
:1039F00006D1FB68181CFFF7E3FE031C7B6107E0A0
:103A0000FB689B78DBB210221343DAB2FB689A7032
:103A10007B68012B07D1FB689B78DBB2082213433C
:103A2000DAB2FB689A70BB685A1CBA60FA681279FD
:103A3000D2B21A707B685A1E7A60002BC8D17B699B
:103A4000181CBD4606B080BD80B584B000AF78605C
:103A500039603B68002B06D18548E6239900854AEA
:103A6000854B00F019FE3B1C0F333A6852791A70EF
:103A70000023BB607A68814B101C191C00F070FA9F
:103A80007B68DB78DBB2DBB25BB2002BF8DA3B6839
:103A90001B7B002B07D03B685B79012B03D13B1CC0
:103AA0000F3300221A703B681A68022313400DD0AE
:103AB0003B681A7979683B1C0F331B78081C111C72
:103AC0001A1CFFF719FE031CBB600CE03B681A7957
:103AD00079683B1C0F331B78081C111C1A1CFFF75C
:103AE000CFFD031CBB60BB68002B01D0BB68BAE0F4
:103AF0007B68DB78DBB21A1C02231340F8D07B68AA
:103B0000DB78DBB27A68101C191C00F07FFA031C0A
:103B1000BB60BB68002B0BD0BA68594B9A4205D1E9
:103B2000584BBB607B68181CFFF74AFEBB689AE0E5
:103B30003B681B7B002B00D16EE07B680222DA70B1
:103B40003B681B7B013BDAB23B681A733B689A689F
:103B50003B681B7BDB00111CD9400B1CDAB27B6875
:103B60001A717B68DB78DBB21A1C02231340F8D091
:103B70007B68DB78DBB27A68101C191C00F046FA0F
:103B8000031CBB60BB68002B09D0BA683C4B9A424F
:103B900003D17B68181CFFF713FEBB6863E03B682A
:103BA0001B7B002B02D0BB68002BC6D03B685B7927
:103BB000012B31D17B680222DA703B681B797A686D
:103BC000101C191C0122FFF797FD031CBB60BB688A
:103BD000002B01D0BB6846E07B68DB78DBB21A1CA7
:103BE00002231340F8D07B68DB78DBB27A68101CC4
:103BF000191C00F00BFA031CBB60BB68002B0BD038
:103C0000BA681F4B9A4205D11E4BBB607B68181CDB
:103C1000FFF7D6FDBB6826E03B685B79002B0ED131
:103C20003B685B69002B0AD03B6819693B685A699D
:103C30003B681B687868FFF71DFE031CBB603B6890
:103C40005B79012B0ED13B685B69002B0AD03B6886
:103C500019693B685A693B681B687868FFF77EFE04
:103C6000031CBB60BB68181CBD4604B080BDC046C9
:103C7000906C000070780000D46C000012500000BE
:103C80004E0400005104000080B586B000AFF8601B
:103C9000B9607A603B60BB68002B05D115481649B6
:103CA000164A174B00F0F8FCFB68181C00F082F96C
:103CB000031C7B61BB68181C0021282202F084FCD5
:103CC000BB687A681A62BB683A685A620D4B7A69B7
:103CD0009200B968D1500C4B0C4A1A600C4A7B69AF
:103CE000D3181B785BB2181C00F024F9BD4606B04F
:103CF00080BDC046906C0000270400008C78000056
:103D0000DC6C0000F0F0FF1FF8F0FF1F153D000015
:103D10002878000090B587B000AF786039603B68C4
:103D2000002B05D12A482B492B4A2C4B00F0B4FC20
:103D30003B683B6100237B617B680222DA70796813
:103D40003A693B1C0F33081C111C1A1C00F07EF949
:103D5000031C7B613B1C0F331B78002B02D17B695A
:103D6000002B31D03B691A680423134007D07A69CD
:103D70001B4B9A4203D07A691A4B9A4210D17B6846
:103D80009B78DBB21A1C2023134009D07B68181CD7
:103D9000FFF716FD031C002B02D08A23DB007B619A
:103DA0003B6900221A777B68181C4021FFF7D0FB83
:103DB0003B691B6A002B07D03B691C6A3B695B6A45
:103DC000786839697A69A047BD4607B090BDC0469A
:103DD000906C00008C040000AC780000E46C0000E3
:103DE0004E0400005104000080B500AF044B1B6876
:103DF000044A101C191C00F05FFABD4680BDC04685
:103E0000F0F0FF1F0060064080B500AF044B5B6818
:103E1000044A101C191C00F04FFABD4680BDC04674
:103E2000F0F0FF1F0070064080B584B000AFF8606E
:103E3000B960FB1D1A70FB1D1B78002B05D1BB68F8
:103E400001229A40FB689A6004E0BB6801229A4014
:103E5000FB685A60BD4604B080BDC04680B584B0E2
:103E600000AFF860B9607A607B68002B06D1164914
:103E7000164A174B081C4B2100F00EFC7B681B7880
:103E8000002B0BD1FB685B69BA680121081C9040CC
:103E9000021CD2431A40FB685A6112E07B685B78CF
:103EA000F968BA68081C111C1A1CFFF7BDFFFB68F3
:103EB0005A69BB680121081C9840031C1A43FB681F
:103EC0005A61BD4604B080BD046E000090770000CA
:103ED000446E000080B582B000AF021CFB1D1A705A
:103EE000064BFA1D1278111C1F220A400121081CE2
:103EF0009040021C1A60BD4602B080BD00E100E0A7
:103F000090B585B000AF78607B681B0C084A9B18A1
:103F1000FB60FB68FA6811687A681204120C0120D1
:103F2000041C9440221C0A431A60BD4605B090BD93
:103F30000070044080B582B000AF021CFB1D1A70F7
:103F4000FB1D1B785BB21A1C803205D0FB1D1B7851
:103F50005BB2181CFFF7BEFFBD4602B080BDC04675
:103F600080B582B000AF786039603A6880235B0129
:103F7000134009D07B689B79DAB23B681B0ADBB23D
:103F80001343DAB27B689A713A688023DB011340ED
:103F900009D07B689B79DAB23B681B0ADBB213431A
:103FA000DAB27B689A713B68DAB27B68DA70BD4638
:103FB00002B080BD80B584B000AF78600023FB60A4
:103FC00009E00E4BFA689200D2587B689A4205D0FD
:103FD000FB680133FB60FB68012BF2D9FB68012B06
:103FE00006D90749074A084B081CB52100F054FBC5
:103FF000FB68181CBD4604B080BDC0462078000098
:104000004C6E000034780000646E000080B584B00F
:1040100000AF786039600023FB603A6810231340DA
:1040200005D07B681022DA70064BFB6005E03A6829
:104030000123134001D0044BFB60FB68181CBD46F4
:1040400004B080BD4F0400004E04000080B588B06D
:1040500000AFF860B9607A600023FB61FB68DB7831
:10406000DBB2BB617B6800221A703B1C1633002256
:104070001A70BB681B7F032B03D1BB685B69002BE5
:1040800007D0BB681B7F052B05D1BB685B69012B83
:1040900001D1012200E000223B1C17331A7019786D
:1040A00001220A401A703B1C16331B78DBB2013325
:1040B000DAB23B1C16331A70FA68BB69101C191C63
:1040C000FFF7A4FF031CFB61FA69794B9A4206D102
:1040D0003B1C17331B78002B01D00023FB61BB680E
:1040E0001B7F012B19D1BA690123134002D0714BF8
:1040F000FB6112E0BB681B7B002B03D0BB68022274
:104100001A770AE0BB685B79002B03D1BB680322F6
:104110001A7702E0BB6804221A77FB69002B01D0F2
:10412000FB69C1E0BB681B7F032B49D002DC022B7B
:1041300006D0B8E0042B5BD0052B00D176E0B2E0CE
:10414000BB681B7B002B11D0BB681B7B013BDAB229
:10415000BB681A73BB689A68BB681B7BDB00111CC9
:10416000D9400B1CDAB2FB681A7199E0BB685B7925
:10417000002B17D1BB6803221A77BB685B69002B41
:1041800000D18DE0BB681B691A78FB681A71BB68A7
:104190001B695A1CBB681A61BB685B695A1EBB6805
:1041A0005A617DE0BB681B79FA68101C191C01225A
:1041B000FFF7A2FA031CFB61BB6804221A7772E0C6
:1041C000BB685B69002B0FD0BB681B691A78FB6862
:1041D0001A71BB681B695A1CBB681A61BB685B69B2
:1041E0005A1EBB685A615EE07B6801221A705AE071
:1041F000FB689B78DBB218229343DAB2FB689A70B3
:10420000BB685B69012B07D1FB689B78DBB2082296
:104210001343DAB2FB689A70FB681B79DAB23B1C75
:1042200016331A70BB6805221A773CE0BB685B69DD
:10423000591EBA685161002B34D0BB685B69002BF2
:1042400016D17B6801221A70BB681A6804231340D8
:1042500006D1FB68181CFFF7B3FA031CFB6107E0EB
:10426000FB689B78DBB210221343DAB2FB689A70CA
:10427000BB685B69012B07D1FB689B78DBB2082226
:104280001343DAB2FB689A70BB681B69FA6812794B
:10429000D2B21A70BB681B695A1CBB681A6102E073
:1042A000C04600E0C046FB69181CBD4608B080BD92
:1042B0004E0400005104000080B582B000AF786069
:1042C00039607B68DB78DBB21A1C1023134006D1FF
:1042D0007B689B78DBB21A1C2023134007D00A4B63
:1042E0001B6879683A68081C111C984706E0074B60
:1042F0001B6879683A68081C111C9847BFF34F8FF8
:10430000BD4602B080BDC046F8F0FF1FFCF0FF1FA5
:1043100080B582B000AFFB1D00221A701DE0FB1DAE
:104320001A78114B9200D358002B11D0FB1D1A782C
:104330000E4B9200D358FA1D11780D4A8900895806
:10434000FA1D1078084A80008258081C111C9847F2
:10435000FB1D1A78FB1D01321A70FB1D1B78012B07
:10436000DDD9BD4602B080BDD8F0FF1FE8F0FF1FC9
:10437000E0F0FF1F80B500AFFFF7CAFFBD4680BD6C
:1043800080B582B000AF78607B68002B06D1114801
:104390008D235900104A114B00F07EF97B68196893
:1043A0007B681B791A1C80235B04081C111C1A1CD7
:1043B00000F086F97B689B68002B07D07B689A68C1
:1043C0007B68DB687968081C191C9047BD4602B001
:1043D00080BDC0468C6E000064770000E06E000077
:1043E00080B500AF034B1B68181CFFF7C9FFBD4623
:1043F00080BDC046C8F0FF1F80B500AF034B5B68AF
:10440000181CFFF7BDFFBD4680BDC046C8F0FF1FAA
:1044100080B500AF034B9B68181CFFF7B1FFBD468A
:1044200080BDC046C8F0FF1F80B500AF034BDB68FE
:10443000181CFFF7A5FFBD4680BDC046C8F0FF1F92
:1044400080B582B000AF7860064A7B685968064B39
:10445000D1507B681B78181C01F0A6F9BD4602B04C
:1044600080BDC046007004404410000080B582B09A
:1044700000AF0F4B1B7ADBB21A1C0E2313405A08F5
:10448000FB1D1A700A4B1B7ED9B2BB1D07220A40C6
:104490001A7001F0A1F9021CFB1D1978BB1D1B78D5
:1044A000CB18111CD9400B1C181CBD4602B080BD96
:1044B0000040064080B500AF0A4B1B7EDBB2DBB28A
:1044C0005BB2002B07DB074B9B79DBB21A1C0C237A
:1044D00013409B0801D1044B00E00023181CBD468B
:1044E00080BDC04600400640006CDC0280B582B052
:1044F00000AF1B4B9B79DBB21A1C0C2313409B08AB
:10450000012B06D002D3022B12D021E0154B7B6089
:1045100020E001F061F9021C114B1B7ADBB2191C7F
:104520000E230B405B08111CD9400B1C7B6011E073
:104530000D4B1B68002B07D10C482E23191CFF3193
:104540000B4A0C4B00F0A8F8074B1B687B6001E09E
:1045500000237B607B68181CBD4602B080BDC0464E
:1045600000400640006CDC02C0F0FF1FCC6F000072
:1045700038770000E46F000080B582B000AF78604B
:104580007B68002B06D14048AC2359003F4A404B82
:1045900000F082F83F4B9B79DBB21A1C0C231340CE
:1045A0009B08012B1DD17B681B78012B19D1394B3E
:1045B0005B78DBB21A1C01231A407B689B789A4215
:1045C0000FD0344B334A1278D1B23F220A40D2B2D4
:1045D0001A70304B9B79DBB21A1C0C2313409B08DA
:1045E000F7D12C4A7B68DB78DB18D9B20E230B405D
:1045F000DBB21372274B7A685279D201D1B27A6852
:10460000107907220240D2B20A43D2B21A76214B65
:10461000204A5278D2B201218A43D1B27A68907886
:1046200001220240D2B20A43D2B25A70194B7A68C0
:1046300012789201D1B27A6852780A43D2B21A70D3
:10464000144B5B78DBB21A1C042313400AD07B683E
:104650001B78022B06D10F4B9B79DBB21A1C02236D
:104660001340F8D07B681B781A1C0A4B9B79DBB28D
:10467000191C0C230B409B089A42F3D10023181CF1
:10468000BD4602B080BDC046CC6F00004C77000034
:10469000F06F00000040064090B587B002AFF860B0
:1046A000B9607A603B6005483968FA68BB687C6825
:1046B000009401F073FA00BEFDE7C04650700000A0
:1046C00080B584B000AFF860B9607A60BB68032B36
:1046D00007D91048DA23191CFF310F4A0F4BFFF797
:1046E000DBFF7B68002B12D0F968BA6884235B007B
:1046F00012018A18D3181B68802252041A43F868E2
:10470000B96884235B0009014118CB181A60BD46C3
:1047100004B080BDB070000074770000C870000065
:1047200080B500AF08E001F03BFE264B1B68264A2F
:10473000101C191C01F032FA224B1A68234B9A42C2
:10474000F1DD012001F076FE08E001F029FE1D4BAD
:104750001B681D4A101C191C01F020FA194B1A681D
:104760001B4B9A42F1DC174B1A681A4B9A42ECDD4C
:10477000002001F05FFE01F0FDFD012001F0A6FE2A
:1047800008E001F00DFE0F4B1B680F4A101C191CAE
:1047900001F004FA0B4B1B68C72BF2DC002001F080
:1047A00095FE01F0E7FD012001F06AFE0A4B181C9E
:1047B00001F0F4F901F0DEFD002001F061FEBD46DC
:1047C00080BDC04694F0FF1F3471000077050000E3
:1047D000E7030000830300004471000080B582B04D
:1047E00000AF00237B6000237B6003E0C0467B6852
:1047F00001337B607B68632BF8D9BD4602B080BD76
:1048000080B582B000AFFB1D00221A703B1C002255
:104810001A803B1C1A7803210A431A703B1C5A78F1
:1048200007218A4301210A435A703B1D01221A7055
:104830003B1D01225A70374A3B1C101C07211A1CD1
:1048400001F0E6FC334A3B1C101C06211A1C01F047
:10485000DFFC314A3B1D101C07211A1CFFF7FEFA32
:104860002D4A3B1D101C06211A1CFFF7F7FA2A4B94
:10487000181C0621002201F059FCFFF7AFFFFB1DB9
:1048800000221A701EE0244B181C0721002201F0A0
:104890004DFCFFF7A3FF204B181C0621012201F05D
:1048A00045FCFFF79BFF1C4B181C0721012201F060
:1048B0003DFCFFF793FFFFF791FFFB1D1A78FB1DEF
:1048C00001321A70FB1D1B78082BDCD9124B181C07
:1048D0000721002201F02AFCFFF780FF0E4B181C75
:1048E0000621002201F022FCFFF778FF0A4B181C7A
:1048F0000721012201F01AFCFFF770FF064B181C7C
:104900000621012201F012FCFFF768FFBD4602B04C
:1049100080BDC04600C00440C0F00F4080B588B0E4
:1049200002AF3B1D00221A703B1D01225A703B1D35
:1049300000229A703B1D0122DA703B1D01221A7180
:104940003B1D00225A713B1C0C33181CFDF79AFCCE
:10495000104A3B1C0C33101C191CFDF715FC0120E0
:1049600001F0C8FB122000F0C1FF011C094A3B1DE9
:10497000094800900191101C191C02220023FDF728
:10498000B7FC044B181C012101F026FCBD4606B003
:1049900080BDC04600A00340C05D000080B582B06D
:1049A00000AF0A1CBB1D011C19803B1D1A80BB1DDA
:1049B0001B88DBB2084A101C00210022FDF7A0FD75
:1049C0003B1D1B88DBB2044A101C01210022FDF7AD
:1049D00097FDBD4602B080BD00A00340000000006E
:1049E000F0B595B000AF3B1C1C3300221A600022CA
:1049F0005A6000229A600022DA6000221A610022C6
:104A00005A6100229A610022DA613B1C14330022B1
:104A10001A6000229A803B1C083300221A60002290
:104A20005A6000229A60FB1D00221A703B1C4F3313
:104A300000221A7000237B643B1C423300221A8040
:104A40003B1C403300221A803B1C4C3300221A804E
:104A50003B1C4A3300221A803B1C493300221A7047
:104A6000BB1D00221A703B1C3F3300221A703B1CF6
:104A70003E3300221A70FDF7ABF9FFF7C1FEFDF7D8
:104A8000FFFAFDF77FF9002000F030FF031C7B6484
:104A90003B1C1C33CA4A1A603B1C1C33C94A5A606F
:104AA0003B1C0833181CFEF729FDC5493A1C083287
:104AB0007B6C081C111C1A1CFEF786FCC04AC14BFB
:104AC000101C191C00220023FFF7DEF83B1C3F33AB
:104AD00004221A703B1C493300221A7034E03B1C3C
:104AE00049331B78B84AD25C3B1C1C331A733A1CFE
:104AF0001C32BB1D101C0D211A1CFDF7CFFF031C1F
:104B0000002B04D13B1C3E3301221A7024E03B1CD5
:104B100049331A783B1C3F331B78013B9A420CD136
:104B20003B1C3E331B7801225340DBB2002B04D0E8
:104B3000A64B181C01F032F8FEE73B1C49331A78EB
:104B40003B1C493301321A703A1C49323B1C3F333B
:104B500012781B789A42C2D33B1C1C33181CFEF7F8
:104B600093F8031C002B02D001235B421BE13A1C8B
:104B70001C32FB1D101C0E211A1CFDF78FFF031C9D
:104B8000002B02D001235B420DE1FB1D1B78002BA3
:104B900004D13B1C4F3302221A7010E0FB1D1B781E
:104BA000012B04D13B1C4F3304221A7007E0FB1D7C
:104BB0001B78102B03D13B1C4F3308221A70FFF7D0
:104BC000ADFE834B181C00F0E9FF824B181C00F06F
:104BD000E5FF3A1C1C323B1C1433101C191CFEF759
:104BE00023F9031C002B02D001235B42DBE03B1CBA
:104BF00014331B781B029AB23B1C14335B781343AB
:104C00009BB29BB21BB29A083B1C42331A803B1CDE
:104C100014339B781B029AB23B1C1433DB7813438A
:104C20009BB29BB21BB29A083B1C40331A803B1CC0
:104C3000423300229B5E181CFCF7EEFA051C0E1C8A
:104C40003B1C4F331B78181CFCF724FB031C0C1C6B
:104C5000281C311C1A1C231CFCF71AF8031C0C1C02
:104C6000181C211C534B524AFCF712F8031C0C1C55
:104C7000181C211C504A514BFBF7E6FC031C0C1C72
:104C8000181C211C01F0ACFC031C0C1C3D1C4C35F9
:104C9000181C211CFCF78CFA031C2B803B1C4C338A
:104CA00000229B5E002B07DA3B1C4C331B885B42C7
:104CB0009AB23B1C4C331A803B1C403300229B5E53
:104CC000181CFCF7A9FA051C0E1C3B1C4F331B7863
:104CD000181CFCF7DFFA031C0C1C281C311C1A1CC6
:104CE000231CFBF7D5FF031C0C1C181C211C314B8B
:104CF0002F4AFBF7CDFF031C0C1C181C211C2E4A4D
:104D00002E4BFBF7A1FC031C0C1C181C211C01F0F2
:104D100067FC031C0C1C3D1C4A35181C211CFCF7AD
:104D200047FA031C2B803B1C4A3300229B5E002B5E
:104D300007DA3B1C4A331B885B429AB23B1C4A335E
:104D40001A803B1C4C331B88552B03D93B1C4C331E
:104D500064221A803B1C4A331B88552B03D93B1C09
:104D60004A3364221A803B1C4C331B88042B03D823
:104D70003B1C4C3300221A803B1C4A331B88042BFB
:104D800003D83B1C4A3300221A803B1C4C331A8840
:104D90003B1C4A331B88101C191CFFF7FFFD3B1CF2
:104DA000403300229B5E181CBD4615B0F0BDC046C6
:104DB0000000000000805640000000000000C040DD
:104DC0000070064098F0FF1F5C76000060710000E4
:104DD00080710000A0710000F0B595B000AF3B1CE1
:104DE0001C3300221A6000225A6000229A600022BE
:104DF000DA6000221A6100225A6100229A610022C0
:104E0000DA613B1C143300221A6000229A803B1C9A
:104E1000083300221A6000225A6000229A60FB1DAB
:104E200000221A703B1C4F3300221A7000237B644F
:104E30003B1C423300221A803B1C403300221A8064
:104E40003B1C4C3300221A803B1C4A3300221A8040
:104E50003B1C493300221A70BB1D00221A703B1CF8
:104E60003F3300221A703B1C3E3300221A70FCF7BD
:104E7000AFFFFFF7C5FCFDF703F9FCF783FF002048
:104E800000F034FD031C7B643B1C1C33CA4A1A60CF
:104E90003B1C1C33C94A5A603B1C0833181CFEF7E4
:104EA0002DFBC5493A1C08327B6C081C111C1A1CCE
:104EB000FEF78AFAC04AC14B101C191C00220023BD
:104EC000FEF7E2FE3B1C3F3304221A703B1C4933C1
:104ED00000221A7034E03B1C49331B78B84AD25C7C
:104EE0003B1C1C331A733A1C1C32BB1D101C0D21B9
:104EF0001A1CFDF7D3FD031C002B04D13B1C3E33D1
:104F000001221A7024E03B1C49331A783B1C3F33C2
:104F10001B78013B9A420CD13B1C3E331B7801228B
:104F20005340DBB2002B04D0A64B181C00F036FE19
:104F3000FEE73B1C49331A783B1C493301321A7097
:104F40003A1C49323B1C3F3312781B789A42C2D339
:104F50003B1C1C33181CFDF797FE031C002B02D0D2
:104F600001235B421BE13A1C1C32FB1D101C0E216D
:104F70001A1CFDF793FD031C002B02D001235B429A
:104F80000DE1FB1D1B78002B04D13B1C4F3302228B
:104F90001A7010E0FB1D1B78012B04D13B1C4F3312
:104FA00004221A7007E0FB1D1B78102B03D13B1C59
:104FB0004F3308221A70FFF7B1FC834B181C00F026
:104FC000EDFD824B181C00F0E9FD3A1C1C323B1C25
:104FD0001433101C191CFDF727FF031C002B02D0F3
:104FE00001235B42DBE03B1C14331B781B029AB2AB
:104FF0003B1C14335B7813439BB29BB21BB29A08E1
:105000003B1C42331A803B1C14339B781B029AB220
:105010003B1C1433DB7813439BB29BB21BB29A0840
:105020003B1C40331A803B1C423300229B5E181C01
:10503000FCF7F2F8051C0E1C3B1C4F331B78181CA8
:10504000FCF728F9031C0C1C281C311C1A1C231CFF
:10505000FBF71EFE031C0C1C181C211C534B524A50
:10506000FBF716FE031C0C1C181C211C504A514B4C
:10507000FBF7EAFA031C0C1C181C211C01F0B0FA07
:10508000031C0C1C3D1C4C35181C211CFCF790F813
:10509000031C2B803B1C4C3300229B5E002B07DA49
:1050A0003B1C4C331B885B429AB23B1C4C331A802E
:1050B0003B1C403300229B5E181CFCF7ADF8051C1E
:1050C0000E1C3B1C4F331B78181CFCF7E3F8031C29
:1050D0000C1C281C311C1A1C231CFBF7D9FD031CBB
:1050E0000C1C181C211C314B2F4AFBF7D1FD031C53
:1050F0000C1C181C211C2E4A2E4BFBF7A5FA031C76
:105100000C1C181C211C01F06BFA031C0C1C3D1C10
:105110004A35181C211CFCF74BF8031C2B803B1C48
:105120004A3300229B5E002B07DA3B1C4A331B8864
:105130005B429AB23B1C4A331A803B1C4C331B889F
:10514000552B03D93B1C4C3364221A803B1C4A3339
:105150001B88552B03D93B1C4A3364221A803B1C05
:105160004C331B88042B03D83B1C4C3300221A8081
:105170003B1C4A331B88042B03D83B1C4A330022B8
:105180001A803B1C4C331A883B1C4A331B88101C6A
:10519000191CFFF703FC3B1C423300229B5E181CCA
:1051A000BD4615B0F0BDC04600000000008056406E
:1051B000000000000000C0400070064098F0FF1F93
:1051C0005C7600006071000080710000A07100003A
:1051D00080B582B000AF00237B6000233B6047E0D6
:1051E000FFF7FEFB031C3B60244A3B68101C191CA4
:1051F00000F0D4FC3A68224B9A42F1DA7B68002B2B
:1052000003D1012001F016F914E07B68012B03D1D2
:10521000012001F05BF90DE0012001F031F909E016
:10522000FFF7DEFB031C3B60144A3B68101C191C93
:1052300000F0B4FC3B681A1C6332F1DB7B68002B86
:1052400003D1002001F0F6F809E07B68012B03D1BF
:10525000002001F03BF902E0002001F011F97B6829
:1052600001337B60074A7B68101C191C00F096FC18
:105270007B68022BBEDDBD4602B080BDEC71000034
:1052800024FAFFFFF471000080B582B000AF002364
:105290007B6000233B6048E0FFF79EFD031C3B6002
:1052A000254A3B68101C191C00F078FC3A68234B17
:1052B0009A42F1DA7B68002B03D1012001F0BAF8A1
:1052C00014E07B68012B03D1012001F0FFF80DE011
:1052D000012001F0D5F809E0FFF77EFD031C3B60DB
:1052E000154A3B68101C191C00F058FC3A68E12371
:1052F000DB009A42F0DD7B68002B03D1002001F037
:1053000099F809E07B68012B03D1002001F0DEF859
:1053100002E0002001F0B4F87B6801337B60084AAA
:105320007B68101C191C00F039FC7B68022BBDDD6A
:10533000BD4602B080BDC046EC710000F8F8FFFF2A
:10534000F471000080B500AF652000F083FF00F02D
:10535000B9FFFFF799FF652000F07CFFFFF738FFEA
:10536000652000F077FFFFF7DBF9652000F072FFA2
:105370000023181CBD4680BD90B585B000AF786095
:105380007B681B0C084A9B18FB60FB68FA68116875
:105390007A681204120C0120041C9440221C0A4357
:1053A0001A60BD4605B090BD0070044080B584B061
:1053B00000AF78600023FB6006E00C4A7B689A42ED
:1053C00005D0FB680133FB60FB68002BF5D0FB6860
:1053D000002B06D00649074A074B081C4621FFF759
:1053E0005BF9FB68181CBD4604B080BD00B00340EB
:1053F000F8710000947600001072000080B584B04F
:1054000000AF786039603B68002B06D13F49404AC5
:10541000404B081C4D21FFF73FF97B68181CFFF734
:10542000C5FF3D4B181CFFF7A7FF3B685B781A1CB4
:1054300003231A403B681B7999000C230B4013434C
:10544000FB603B685B79042B03D0FB68102213439D
:10545000FB603B68DB785A0160231340FA68134312
:10546000FB603B68DB79002B03D0FB688022134391
:10547000FB607B68FA689A607B68DB680F22934365
:10548000FB603B685B79042B07D03B685B791A1C97
:1054900003231340FA681343FB603B689B79002B9E
:1054A00003D0FB6804221343FB603B689B78002B0E
:1054B00003D0FB6808221343FB607B68FA68DA605C
:1054C0007B681B6A03229343FB603B681B781A1CB2
:1054D00003231340FA681343FB607B68FA681A627F
:1054E0003B681B7A002B06D07B685B6A08221A4354
:1054F0007B685A6207E07B685B6A0822191C91434B
:105500000A1C7B685A62BD4604B080BDF871000079
:10551000A8760000387200001B003C1080B582B0F5
:1055200000AF78607B68002B06D11249124A134BFA
:10553000081C8D21FFF7B0F87B6800221A707B6889
:1055400003225A707B6801229A707B680322DA700A
:105550007B6801221A717B6804225A717B680022E1
:105560009A717B680022DA717B6800221A72BD464C
:1055700002B080BDF8710000B476000038720000FF
:1055800080B586B000AF78603B1C173300221A70DC
:1055900000233B617B681A6A402313400BD03B1CFD
:1055A000173301221A707B681B6A4022191C914331
:1055B0000A1C7B681A627B685B6AC0221A437B689C
:1055C0005A620AE07B68181C00F068F8021C40234D
:1055D000134002D001233B6108E07B68181C0021C6
:1055E00000F0BAF8021C80231340EBD07B681B69E3
:1055F000FB603B1C17331B78002B05D07B681B6AB4
:1056000040221A437B681A627B68181C00F046F837
:10561000021C4023134001D001233B613B69002B56
:1056200001D03B6936E07B68DA6C7B689B6CD218F2
:105630007B685B6CD2187B681B6CD2187B68DB6B59
:10564000D2187B689B6BD318FB60FB685B088022D9
:1056500012021343FB60FA687B68DA627B68DA6ED9
:105660007B689B6ED2187B685B6ED2187B681B6E62
:10567000D2187B68DB6DD2187B689B6DD318FB60FA
:10568000FB685B08802212021343FB60FA687B68A8
:105690001A630023181CBD4606B080BD80B584B0D7
:1056A00000AF78600023FB607B681A6A8023134098
:1056B00003D0FB6880221343FB607B685A6A402357
:1056C000134003D0FB6840221343FB60FB68181CA7
:1056D000BD4604B080BDC04680B586B000AFF8605E
:1056E000B9607A60BB68012B07D917485423191C8D
:1056F000FF31164A164BFEF7CFFF7B68002B06D111
:105700001148AA235900114A124BFEF7C5FF7B68C6
:105710001A681F2313407B617B685B79002B03D0E1
:105720007B69202213437B617B681B79002B03D0AC
:105730007B69402213437B61FB68BA6892007969F8
:10574000D150BD4606B080BDF8710000CC76000097
:10575000487200003872000080B584B000AF7860F5
:1057600039603B68012B07D90C486A23191CFF31AB
:105770000B4A0C4BFEF790FF0023FB607B683A68F6
:105780009200D2588023134003D0FB688022134339
:10579000FB60FB68181CBD4604B080BDF8710000BA
:1057A000E47600004872000080B582B000AF7860F7
:1057B000074B074A1168074A11407A689004C022D3
:1057C000120302400A431A60BD4602B080BDC046C3
:1057D00000700440FFFFF3FF80B500AF0E4B1B7855
:1057E000DBB21A1C0223134008D10B4B9B79DBB2AE
:1057F0001A1C0C2313409B08012B09D1064B5B7824
:10580000DBB21A1C01231A40044B9200D35800E06B
:105810000023181CBD4680BD0040064000770000F4
:1058200080B500AF0C4B1B78DBB2DBB25BB2002B58
:105830000DDA0A4B1B68002B06D10949094A0A4BAD
:10584000081C8421FEF728FF044B1B6800E000239E
:10585000181CBD4680BDC04600500640C0F0FF1F6A
:1058600068720000087700008072000080B582B086
:1058700000AF194B1A68C0231B0313409B0C022B6B
:1058800010D0032B1DD0002B1FD1FFF7C9FF021C26
:1058900080231B029A4202D180231B0200E00023D6
:1058A0007B6014E00D4B1B68002B06D10C490D4AA0
:1058B0000D4B081C9821FEF7EFFE084B1B687B6020
:1058C00005E0FA239B007B6001E000237B607B689E
:1058D000181CBD4602B080BD00700440C4F0FF1F1C
:1058E00068720000207700008C72000080B584B0E0
:1058F00000AF021CFB1D1A70FB1D1B78132B48D830
:105900009A00274BD3181B689F46FEF7EFFD021C39
:105910002449254BCB581B0F0133101C191CFAF7D7
:10592000E3FD031CFB6036E0FEF7E0FD021C1D49B1
:105930001D4BCB581B0F0133101C191CFAF7D4FD5B
:10594000031CFB60174A184BD258E023DB021340BC
:105950001B0C0133F868191CFAF7C6FD031CFB6029
:1059600019E0FFF783FF031CFB6014E0FFF758FF0B
:10597000031CFB600FE0FEF779FD031CFB600AE0EF
:10598000FEF798FD031CFB6005E0FA239B00FB601B
:1059900001E00023FB60FB68181CBD4604B080BD1D
:1059A0000C760000007004404410000080B582B006
:1059B00000AF78600A1CFB1C1A70FB1C1B78002BC4
:1059C00008D07B68DB78DBB208221343DAB27B684D
:1059D000DA7007E07B68DB78DBB208229343DAB247
:1059E0007B68DA70BD4602B080BDC04680B582B02B
:1059F00000AF78600A1CFB1C1A70FB1C1B78002B84
:105A000008D07B68DB78DBB204221343DAB27B6810
:105A1000DA7007E07B68DB78DBB204229343DAB20A
:105A20007B68DA70BD4602B080BDC04680B582B0EA
:105A300000AF78600A1CFB1C1A70FB1C1B78002B43
:105A400007D07B689B68802212031A437B689A60A8
:105A500005E07B689A68034B1A407B689A60BD46F4
:105A600002B080BDFFFFF7FF80B582B000AF786065
:105A70000A1CFB1C1A70FB1C1B78002B07D07B68D0
:105A80009B688022D2021A437B689A6005E07B689B
:105A90009A68034B1A407B689A60BD4602B080BD8D
:105AA000FFFFFBFF80B58AB000AFF860B9603B60D4
:105AB000FB1D1A70344B1B78002B01D001235FE0D3
:105AC000314BFA1D12781A70FB1D1B78012B02D086
:105AD000022B29D051E0FA682B4B5A603B1C14333F
:105AE000181CFCF7CBFE3B1C1433BA681A60264B1B
:105AF00059683A1C14323B68081C111C1A1CFCF72C
:105B0000B3FD214B5B68181C0121FFF74FFF1E4BB3
:105B10005B68181C0121FFF769FF1B4B1B4A9A6049
:105B2000194B1B4ADA602AE0FA68174B5A603B1C93
:105B30001C33181CFDF79EFB3B1C1C33BA681A6013
:105B4000114B59683A1C1C323B68081C111C1A1C6A
:105B5000FDF742FA0C4B5B68181C0121FFF766FF4A
:105B6000094B5B68181C0121FFF77EFF064B094AB1
:105B70009A60054B084ADA6001E0042300E0002344
:105B8000181CBD460AB080BD84F0FF1FF12800003C
:105B900029290000713300005D2B00000FB480B58F
:105BA00082B000AF0D4B1B78002B02D101235B426A
:105BB0000DE03B1C14333B6009493A693B68081C03
:105BC000111C1A1C00F0D8F8031C7B607B68181CA1
:105BD000BD4602B080BC08BC04B0184784F0FF1F6B
:105BE000E55B000090B583B000AF78600A4B1B788E
:105BF000002B02D101235B4209E0074B9C68064B56
:105C00005A683B1D101C191C0122A0470123181CB7
:105C1000BD4603B090BDC04684F0FF1F80B586B07E
:105C200000AFB9607A603B603B1C0F33021C1A70F6
:105C3000BB687B610EE03B1C0F3300229A563B6A27
:105C4000101C98473B681B685A1C3B681A607B69AC
:105C500001337B617A697B689A42ECDBBD4606B012
:105C600080BDC04680B58CB000AFF860B9607A6086
:105C70003B600023FB61FB68BB61BB695A1CBA61D6
:105C800000221A707B68002B35D0BB681B68FB6252
:105C9000FB6A002B2BD1BB6930221A70FB690133E0
:105CA000FB61FB6964E0F86A3968FAF76BFC031C76
:105CB0007B617B693A685343FA6AD31ABB62BB6A59
:105CC000002B06DABB6A3B623B6A3022D31ABB6206
:105CD00002E0BB6A3033BB627B69FB62BB695A1C62
:105CE000BA61BA6AD2B21A70FB690133FB61FB6A0E
:105CF000002BD8D13BE0BB681B687B627B6A002B22
:105D000032D1BB6930221A70FB690133FB61FB6938
:105D10002EE03B68786A191CFAF7E6FB031C3B612E
:105D20003B683A6953437A6AD31A3B623B6A092B50
:105D300003D83B6A30333B620BE03B1C38331B78A3
:105D4000002B01D0412300E061233A6A9B180A3BF3
:105D50003B623B697B62BB695A1CBA613A6AD2B248
:105D60001A70FB690133FB617B6A002BD1D1FB699F
:105D7000181CBD460CB080BD80B59CB002AFF86069
:105D8000B9607A6000233B660023FB650023BB619A
:105D90003B1C4A3300221A7000233B61BB687B66C0
:105DA0007EE17B6C252B07D07A6CFB68101C984732
:105DB000BB690133BB6170E13B1C4B3301221A709C
:105DC00000237B650023BB651CE07B6E01337B6693
:105DD0007B6E1B785BB27B647B6C2F2B0DDD7B6C49
:105DE000392B0ADC7A6D131C9B009B185B001A1C74
:105DF0007B6CD318303B7B6504E07B6E013B7B669C
:105E00000123BB65BB6D002BDFD006233B657B6E9A
:105E100001337B667B6E1B785BB22E2B25D1002372
